:100000000C942A000C943F000C943F000C943F0089
:100010000C943F000C943F000C943F000C943F0064
:100020000C943F000C943F000C943F000C943F0054
:100030000C943F000C943F000C943F000C943F0044
:100040000C943F000C943F000C943F000C943F0034
:100050000C943F0011241FBECFE5D8E0DEBFCDBF1A
:1000600010E0A0E6B0E0EAE7F1E002C005900D92F2
:10007000A037B107D9F70E9441000C94BB000C9443
:100080000000DF93CF93CDB7DEB7A4E3B0E0E4E3A5
:10009000F0E0808184608C93A4E3B0E0E4E3F0E0DE
:1000A000808180688C93A1E3B0E0E1E3F0E080819F
:1000B0008F7B8C93A1E3B0E0E1E3F0E080818E7F61
:1000C0008C93E0E3F0E0808182958695869583703D
:1000D000882F90E081709070882379F0A5E3B0E0DC
:1000E000E5E3F0E0808184608C93A5E3B0E0E5E394
:1000F000F0E080818F778C9317C0E0E3F0E080819F
:10010000882F90E081709070882371F0A5E3B0E0B3
:10011000E5E3F0E080818B7F8C93A5E3B0E0E5E33D
:10012000F0E080818F778C93E0E3F0E0808182952E
:10013000869586958370882F90E0817090700097E7
:1001400009F0BFCFE0E3F0E08081882F90E081707C
:100150009070009709F0B5CFA5E3B0E0E5E3F0E0DB
:10016000808180688C93A5E3B0E0E5E3F0E08081D6
:0A0170008B7F8C93A6CFF894FFCF8D
:10017A003F065B4F666D7D077F6F777C395E7971CD
:00000001FF
