:100000000C942A000C9434000C9434000C943400AA
:100010000C9434000C9434000C9434000C94340090
:100020000C9434000C9434000C9434000C94340080
:100030000C9434000C9434000C9434000C94340070
:100040000C9434000C9434000C9434000C94340060
:100050000C94340011241FBECFE5D8E0DEBFCDBF25
:100060000E9436000C944D000C940000DF93CF9357
:10007000CDB7DEB7A4E3B0E0E4E3F0E080818068D0
:100080008C93A5E3B0E0E5E3F0E0808180688C9399
:0E00900080E090E0CF91DF910895F894FFCFCB
:00000001FF
